{
  "_format": "hh-sol-artifact-1",
  "contractName": "NFTMarketplace",
  "sourceName": "contracts/nft.sol",
  "abi": [
    {
      "inputs": [],
      "stateMutability": "nonpayable",
      "type": "constructor"
    },
    {
      "anonymous": false,
      "inputs": [
        {
          "indexed": true,
          "internalType": "address",
          "name": "owner",
          "type": "address"
        },
        {
          "indexed": true,
          "internalType": "address",
          "name": "approved",
          "type": "address"
        },
        {
          "indexed": true,
          "internalType": "uint256",
          "name": "tokenId",
          "type": "uint256"
        }
      ],
      "name": "Approval",
      "type": "event"
    },
    {
      "anonymous": false,
      "inputs": [
        {
          "indexed": true,
          "internalType": "address",
          "name": "owner",
          "type": "address"
        },
        {
          "indexed": true,
          "internalType": "address",
          "name": "operator",
          "type": "address"
        },
        {
          "indexed": false,
          "internalType": "bool",
          "name": "approved",
          "type": "bool"
        }
      ],
      "name": "ApprovalForAll",
      "type": "event"
    },
    {
      "anonymous": false,
      "inputs": [
        {
          "indexed": false,
          "internalType": "uint256",
          "name": "_fromTokenId",
          "type": "uint256"
        },
        {
          "indexed": false,
          "internalType": "uint256",
          "name": "_toTokenId",
          "type": "uint256"
        }
      ],
      "name": "BatchMetadataUpdate",
      "type": "event"
    },
    {
      "anonymous": false,
      "inputs": [
        {
          "indexed": false,
          "internalType": "uint256",
          "name": "_tokenId",
          "type": "uint256"
        }
      ],
      "name": "MetadataUpdate",
      "type": "event"
    },
    {
      "anonymous": false,
      "inputs": [
        {
          "indexed": true,
          "internalType": "uint256",
          "name": "tokenId",
          "type": "uint256"
        },
        {
          "indexed": false,
          "internalType": "uint256",
          "name": "price",
          "type": "uint256"
        },
        {
          "indexed": false,
          "internalType": "address",
          "name": "seller",
          "type": "address"
        }
      ],
      "name": "TokenListed",
      "type": "event"
    },
    {
      "anonymous": false,
      "inputs": [
        {
          "indexed": true,
          "internalType": "uint256",
          "name": "tokenId",
          "type": "uint256"
        },
        {
          "indexed": false,
          "internalType": "string",
          "name": "tokenURI",
          "type": "string"
        }
      ],
      "name": "TokenMinted",
      "type": "event"
    },
    {
      "anonymous": false,
      "inputs": [
        {
          "indexed": true,
          "internalType": "uint256",
          "name": "tokenId",
          "type": "uint256"
        },
        {
          "indexed": false,
          "internalType": "address",
          "name": "buyer",
          "type": "address"
        },
        {
          "indexed": false,
          "internalType": "address",
          "name": "seller",
          "type": "address"
        },
        {
          "indexed": false,
          "internalType": "uint256",
          "name": "price",
          "type": "uint256"
        }
      ],
      "name": "TokenPurchased",
      "type": "event"
    },
    {
      "anonymous": false,
      "inputs": [
        {
          "indexed": true,
          "internalType": "uint256",
          "name": "tokenId",
          "type": "uint256"
        }
      ],
      "name": "TokenUnlisted",
      "type": "event"
    },
    {
      "anonymous": false,
      "inputs": [
        {
          "indexed": true,
          "internalType": "address",
          "name": "from",
          "type": "address"
        },
        {
          "indexed": true,
          "internalType": "address",
          "name": "to",
          "type": "address"
        },
        {
          "indexed": true,
          "internalType": "uint256",
          "name": "tokenId",
          "type": "uint256"
        }
      ],
      "name": "Transfer",
      "type": "event"
    },
    {
      "inputs": [
        {
          "internalType": "address",
          "name": "to",
          "type": "address"
        },
        {
          "internalType": "uint256",
          "name": "tokenId",
          "type": "uint256"
        }
      ],
      "name": "approve",
      "outputs": [],
      "stateMutability": "nonpayable",
      "type": "function"
    },
    {
      "inputs": [
        {
          "internalType": "address",
          "name": "owner",
          "type": "address"
        }
      ],
      "name": "balanceOf",
      "outputs": [
        {
          "internalType": "uint256",
          "name": "",
          "type": "uint256"
        }
      ],
      "stateMutability": "view",
      "type": "function"
    },
    {
      "inputs": [
        {
          "internalType": "uint256",
          "name": "tokenId",
          "type": "uint256"
        }
      ],
      "name": "getApproved",
      "outputs": [
        {
          "internalType": "address",
          "name": "",
          "type": "address"
        }
      ],
      "stateMutability": "view",
      "type": "function"
    },
    {
      "inputs": [],
      "name": "getAvailableNFTs",
      "outputs": [
        {
          "internalType": "uint256[]",
          "name": "",
          "type": "uint256[]"
        }
      ],
      "stateMutability": "view",
      "type": "function"
    },
    {
      "inputs": [
        {
          "internalType": "address",
          "name": "owner",
          "type": "address"
        }
      ],
      "name": "getMintedNFTsByOwner",
      "outputs": [
        {
          "internalType": "uint256[]",
          "name": "",
          "type": "uint256[]"
        }
      ],
      "stateMutability": "view",
      "type": "function"
    },
    {
      "inputs": [],
      "name": "getSoldNFTs",
      "outputs": [
        {
          "internalType": "uint256[]",
          "name": "",
          "type": "uint256[]"
        }
      ],
      "stateMutability": "view",
      "type": "function"
    },
    {
      "inputs": [
        {
          "internalType": "uint256",
          "name": "tokenId",
          "type": "uint256"
        }
      ],
      "name": "getTokenCreatorById",
      "outputs": [
        {
          "internalType": "address",
          "name": "",
          "type": "address"
        }
      ],
      "stateMutability": "view",
      "type": "function"
    },
    {
      "inputs": [
        {
          "internalType": "uint256",
          "name": "tokenId",
          "type": "uint256"
        }
      ],
      "name": "getTokenDetails",
      "outputs": [
        {
          "internalType": "address",
          "name": "creator",
          "type": "address"
        },
        {
          "internalType": "address",
          "name": "owner",
          "type": "address"
        },
        {
          "internalType": "uint256",
          "name": "price",
          "type": "uint256"
        },
        {
          "internalType": "bool",
          "name": "listed",
          "type": "bool"
        },
        {
          "internalType": "bool",
          "name": "isSold",
          "type": "bool"
        },
        {
          "internalType": "uint256[]",
          "name": "priceHistory",
          "type": "uint256[]"
        },
        {
          "internalType": "address[]",
          "name": "ownershipHistory",
          "type": "address[]"
        }
      ],
      "stateMutability": "view",
      "type": "function"
    },
    {
      "inputs": [
        {
          "internalType": "uint256",
          "name": "tokenId",
          "type": "uint256"
        }
      ],
      "name": "getTokenPriceHistory",
      "outputs": [
        {
          "internalType": "uint256[]",
          "name": "",
          "type": "uint256[]"
        }
      ],
      "stateMutability": "view",
      "type": "function"
    },
    {
      "inputs": [
        {
          "internalType": "address",
          "name": "owner",
          "type": "address"
        },
        {
          "internalType": "address",
          "name": "operator",
          "type": "address"
        }
      ],
      "name": "isApprovedForAll",
      "outputs": [
        {
          "internalType": "bool",
          "name": "",
          "type": "bool"
        }
      ],
      "stateMutability": "view",
      "type": "function"
    },
    {
      "inputs": [
        {
          "internalType": "uint256",
          "name": "tokenId",
          "type": "uint256"
        },
        {
          "internalType": "uint256",
          "name": "price",
          "type": "uint256"
        }
      ],
      "name": "listToken",
      "outputs": [],
      "stateMutability": "nonpayable",
      "type": "function"
    },
    {
      "inputs": [
        {
          "internalType": "string",
          "name": "metadataURI",
          "type": "string"
        },
        {
          "internalType": "uint256",
          "name": "batchSize",
          "type": "uint256"
        }
      ],
      "name": "mintNFT",
      "outputs": [
        {
          "internalType": "uint256[]",
          "name": "",
          "type": "uint256[]"
        }
      ],
      "stateMutability": "nonpayable",
      "type": "function"
    },
    {
      "inputs": [],
      "name": "name",
      "outputs": [
        {
          "internalType": "string",
          "name": "",
          "type": "string"
        }
      ],
      "stateMutability": "view",
      "type": "function"
    },
    {
      "inputs": [
        {
          "internalType": "uint256",
          "name": "tokenId",
          "type": "uint256"
        }
      ],
      "name": "ownerOf",
      "outputs": [
        {
          "internalType": "address",
          "name": "",
          "type": "address"
        }
      ],
      "stateMutability": "view",
      "type": "function"
    },
    {
      "inputs": [
        {
          "internalType": "uint256",
          "name": "tokenId",
          "type": "uint256"
        }
      ],
      "name": "purchaseToken",
      "outputs": [],
      "stateMutability": "payable",
      "type": "function"
    },
    {
      "inputs": [
        {
          "internalType": "address",
          "name": "from",
          "type": "address"
        },
        {
          "internalType": "address",
          "name": "to",
          "type": "address"
        },
        {
          "internalType": "uint256",
          "name": "tokenId",
          "type": "uint256"
        }
      ],
      "name": "safeTransferFrom",
      "outputs": [],
      "stateMutability": "nonpayable",
      "type": "function"
    },
    {
      "inputs": [
        {
          "internalType": "address",
          "name": "from",
          "type": "address"
        },
        {
          "internalType": "address",
          "name": "to",
          "type": "address"
        },
        {
          "internalType": "uint256",
          "name": "tokenId",
          "type": "uint256"
        },
        {
          "internalType": "bytes",
          "name": "data",
          "type": "bytes"
        }
      ],
      "name": "safeTransferFrom",
      "outputs": [],
      "stateMutability": "nonpayable",
      "type": "function"
    },
    {
      "inputs": [
        {
          "internalType": "address",
          "name": "operator",
          "type": "address"
        },
        {
          "internalType": "bool",
          "name": "approved",
          "type": "bool"
        }
      ],
      "name": "setApprovalForAll",
      "outputs": [],
      "stateMutability": "nonpayable",
      "type": "function"
    },
    {
      "inputs": [
        {
          "internalType": "bytes4",
          "name": "interfaceId",
          "type": "bytes4"
        }
      ],
      "name": "supportsInterface",
      "outputs": [
        {
          "internalType": "bool",
          "name": "",
          "type": "bool"
        }
      ],
      "stateMutability": "view",
      "type": "function"
    },
    {
      "inputs": [],
      "name": "symbol",
      "outputs": [
        {
          "internalType": "string",
          "name": "",
          "type": "string"
        }
      ],
      "stateMutability": "view",
      "type": "function"
    },
    {
      "inputs": [
        {
          "internalType": "uint256",
          "name": "tokenId",
          "type": "uint256"
        }
      ],
      "name": "tokenURI",
      "outputs": [
        {
          "internalType": "string",
          "name": "",
          "type": "string"
        }
      ],
      "stateMutability": "view",
      "type": "function"
    },
    {
      "inputs": [
        {
          "internalType": "address",
          "name": "from",
          "type": "address"
        },
        {
          "internalType": "address",
          "name": "to",
          "type": "address"
        },
        {
          "internalType": "uint256",
          "name": "tokenId",
          "type": "uint256"
        }
      ],
      "name": "transferFrom",
      "outputs": [],
      "stateMutability": "nonpayable",
      "type": "function"
    },
    {
      "inputs": [
        {
          "internalType": "uint256",
          "name": "tokenId",
          "type": "uint256"
        }
      ],
      "name": "unlistToken",
      "outputs": [],
      "stateMutability": "nonpayable",
      "type": "function"
    }
  ],
  "bytecode": "0x60806040523480156200001157600080fd5b506040518060400160405280600781526020016604d61726b4b6f760cc1b815250604051806040016040528060048152602001634d41524b60e01b81525081600090816200006091906200011d565b5060016200006f82826200011d565b505050620001e9565b634e487b7160e01b600052604160045260246000fd5b600181811c90821680620000a357607f821691505b602082108103620000c457634e487b7160e01b600052602260045260246000fd5b50919050565b601f8211156200011857600081815260208120601f850160051c81016020861015620000f35750805b601f850160051c820191505b818110156200011457828155600101620000ff565b5050505b505050565b81516001600160401b0381111562000139576200013962000078565b62000151816200014a84546200008e565b84620000ca565b602080601f831160018114620001895760008415620001705750858301515b600019600386901b1c1916600185901b17855562000114565b600085815260208120601f198616915b82811015620001ba5788860151825594840194600190910190840162000199565b5085821015620001d95787850151600019600388901b60f8161c191681555b5050505050600190811b01905550565b61273d80620001f96000396000f3fe6080604052600436106101405760003560e01c806375c1631d116100b6578063ad3a358c1161006f578063ad3a358c146103a6578063b88d4fde146103c6578063c1e03728146103e6578063c2db2c4214610419578063c87b56dd1461042c578063e985e9c51461044c57600080fd5b806375c1631d146102db578063867d3397146102fb57806395d89b41146103315780639f9518eb14610346578063a22cb46514610366578063a88a04c51461038657600080fd5b806329495c921161010857806329495c921461021657806332702c951461023857806342842e0e1461024d5780635afa3a721461026d5780636352211e1461028d57806370a08231146102ad57600080fd5b806301ffc9a71461014557806306fdde031461017a578063081812fc1461019c578063095ea7b3146101d457806323b872dd146101f6575b600080fd5b34801561015157600080fd5b50610165610160366004611fa6565b610495565b60405190151581526020015b60405180910390f35b34801561018657600080fd5b5061018f6104c0565b6040516101719190612013565b3480156101a857600080fd5b506101bc6101b7366004612026565b610552565b6040516001600160a01b039091168152602001610171565b3480156101e057600080fd5b506101f46101ef36600461205b565b610579565b005b34801561020257600080fd5b506101f4610211366004612085565b610693565b34801561022257600080fd5b5061022b6106c4565b60405161017191906120fc565b34801561024457600080fd5b5061022b610724565b34801561025957600080fd5b506101f4610268366004612085565b6108a8565b34801561027957600080fd5b5061022b61028836600461219b565b6108c3565b34801561029957600080fd5b506101bc6102a8366004612026565b610bbc565b3480156102b957600080fd5b506102cd6102c83660046121f4565b610c1c565b604051908152602001610171565b3480156102e757600080fd5b506101f46102f636600461220f565b610ca2565b34801561030757600080fd5b506101bc610316366004612026565b6000908152600860205260409020546001600160a01b031690565b34801561033d57600080fd5b5061018f610e21565b34801561035257600080fd5b5061022b6103613660046121f4565b610e30565b34801561037257600080fd5b506101f4610381366004612231565b610f9a565b34801561039257600080fd5b5061022b6103a1366004612026565b610fa9565b3480156103b257600080fd5b506101f46103c1366004612026565b61100e565b3480156103d257600080fd5b506101f46103e136600461226d565b611106565b3480156103f257600080fd5b50610406610401366004612026565b61113e565b60405161017197969594939291906122e9565b6101f4610427366004612026565b6112c2565b34801561043857600080fd5b5061018f610447366004612026565b6114b1565b34801561045857600080fd5b50610165610467366004612372565b6001600160a01b03918216600090815260056020908152604080832093909416825291909152205460ff1690565b60006001600160e01b03198216632483248360e11b14806104ba57506104ba826115c1565b92915050565b6060600080546104cf906123a5565b80601f01602080910402602001604051908101604052809291908181526020018280546104fb906123a5565b80156105485780601f1061051d57610100808354040283529160200191610548565b820191906000526020600020905b81548152906001019060200180831161052b57829003601f168201915b5050505050905090565b600061055d82611611565b506000908152600460205260409020546001600160a01b031690565b600061058482610bbc565b9050806001600160a01b0316836001600160a01b0316036105f65760405162461bcd60e51b815260206004820152602160248201527f4552433732313a20617070726f76616c20746f2063757272656e74206f776e656044820152603960f91b60648201526084015b60405180910390fd5b336001600160a01b038216148061061257506106128133610467565b6106845760405162461bcd60e51b815260206004820152603d60248201527f4552433732313a20617070726f76652063616c6c6572206973206e6f7420746f60448201527f6b656e206f776e6572206f7220617070726f76656420666f7220616c6c00000060648201526084016105ed565b61068e8383611664565b505050565b61069d33826116d2565b6106b95760405162461bcd60e51b81526004016105ed906123df565b61068e838383611750565b336000908152600a602090815260409182902080548351818402810184019094528084526060939283018282801561054857602002820191906000526020600020905b815481526020019060010190808311610707575050505050905090565b6060600061073160075490565b905060008167ffffffffffffffff81111561074e5761074e61210f565b604051908082528060200260200182016040528015610777578160200160208202803683370190505b509050600060015b8381116108035760008181526009602052604090206003015460ff1680156107c057506000818152600960205260409020600101546001600160a01b031615155b156107f157808383815181106107d8576107d861242c565b6020908102919091010152816107ed81612442565b9250505b806107fb81612442565b91505061077f565b5060008167ffffffffffffffff81111561081f5761081f61210f565b604051908082528060200260200182016040528015610848578160200160208202803683370190505b50905060005b8281101561089f578381815181106108685761086861242c565b60200260200101518282815181106108825761088261242c565b60209081029190910101528061089781612442565b91505061084e565b50949350505050565b61068e83838360405180602001604052806000815250611106565b6060600082116109215760405162461bcd60e51b8152602060048201526024808201527f42617463682073697a65206d7573742062652067726561746572207468616e206044820152637a65726f60e01b60648201526084016105ed565b60008351116109695760405162461bcd60e51b8152602060048201526014602482015273496e76616c6964206d657461646174612055524960601b60448201526064016105ed565b60008267ffffffffffffffff8111156109845761098461210f565b6040519080825280602002602001820160405280156109ad578160200160208202803683370190505b50905060005b83811015610bb4576109c9600780546001019055565b60006109d460075490565b600081815260086020526040902080546001600160a01b03191633908117909155909150610a0290826118b4565b610a0c8187611a21565b6040805160e081018252338082526020820152600091810182905260608101829052608081018290529060a0820190604051908082528060200260200182016040528015610a64578160200160208202803683370190505b5081526020016000604051908082528060200260200182016040528015610a95578160200160208202803683370190505b509052600082815260096020908152604091829020835181546001600160a01b039182166001600160a01b0319918216178355858401516001840180549190931691161790559183015160028301556060830151600383018054608086015115156101000261ff00199315159390931661ffff199091161791909117905560a08301518051610b2a9260048501920190611edb565b5060c08201518051610b46916005840191602090910190611f26565b5090505080838381518110610b5d57610b5d61242c565b602002602001018181525050807fac60a09674f049f6a63c51f373fb7febaf74a582f3a9f82cd39275be73988d2187604051610b999190612013565b60405180910390a25080610bac81612442565b9150506109b3565b509392505050565b6000818152600260205260408120546001600160a01b0316806104ba5760405162461bcd60e51b8152602060048201526018602482015277115490cdcc8c4e881a5b9d985b1a59081d1bdad95b88125160421b60448201526064016105ed565b60006001600160a01b038216610c865760405162461bcd60e51b815260206004820152602960248201527f4552433732313a2061646472657373207a65726f206973206e6f7420612076616044820152683634b21037bbb732b960b91b60648201526084016105ed565b506001600160a01b031660009081526003602052604090205490565b81610cac81611add565b610cc85760405162461bcd60e51b81526004016105ed90612469565b33610cd282610bbc565b6001600160a01b031614610cf85760405162461bcd60e51b81526004016105ed90612497565b60008381526009602052604090206003015460ff1615610d5a5760405162461bcd60e51b815260206004820152601760248201527f546f6b656e20697320616c7265616479206c697374656400000000000000000060448201526064016105ed565b60008211610daa5760405162461bcd60e51b815260206004820152601f60248201527f5072696365206d7573742062652067726561746572207468616e207a65726f0060448201526064016105ed565b6000838152600960205260409081902060028101849055600301805461ffff191660011790555183907fa86bf5a1c4342c2337dd44c7635b99bcf75adc1398c78ef17152022c4005f5e290610e1490859033909182526001600160a01b0316602082015260400190565b60405180910390a2505050565b6060600180546104cf906123a5565b60606000610e3d60075490565b905060008167ffffffffffffffff811115610e5a57610e5a61210f565b604051908082528060200260200182016040528015610e83578160200160208202803683370190505b509050600060015b838111610ef4576000818152600960205260409020600101546001600160a01b03808816911603610ee25780838381518110610ec957610ec961242c565b602090810291909101015281610ede81612442565b9250505b80610eec81612442565b915050610e8b565b5060008167ffffffffffffffff811115610f1057610f1061210f565b604051908082528060200260200182016040528015610f39578160200160208202803683370190505b50905060005b82811015610f9057838181518110610f5957610f5961242c565b6020026020010151828281518110610f7357610f7361242c565b602090810291909101015280610f8881612442565b915050610f3f565b5095945050505050565b610fa5338383611afa565b5050565b60008181526009602090815260409182902060040180548351818402810184019094528084526060939283018282801561100257602002820191906000526020600020905b815481526020019060010190808311610fee575b50505050509050919050565b8061101881611add565b6110345760405162461bcd60e51b81526004016105ed90612469565b3361103e82610bbc565b6001600160a01b0316146110645760405162461bcd60e51b81526004016105ed90612497565b60008281526009602052604090206003015460ff166110bb5760405162461bcd60e51b8152602060048201526013602482015272151bdad95b881a5cc81b9bdd081b1a5cdd1959606a1b60448201526064016105ed565b60008281526009602052604080822060028101839055600301805460ff191690555183917fe0bba5d0bdeddbcc4ef688b9d8170c81883fb4c4a7065d8970c58b47996dd2d791a25050565b61111033836116d2565b61112c5760405162461bcd60e51b81526004016105ed906123df565b61113884848484611bc8565b50505050565b600080600080600060608061115288611add565b61116e5760405162461bcd60e51b81526004016105ed90612469565b6000888152600960209081526040808320815160e08101835281546001600160a01b03908116825260018301541681850152600282015481840152600382015460ff8082161515606084015261010090910416151560808201526004820180548451818702810187019095528085529194929360a086019390929083018282801561121857602002820191906000526020600020905b815481526020019060010190808311611204575b505050505081526020016005820180548060200260200160405190810160405280929190818152602001828054801561127a57602002820191906000526020600020905b81546001600160a01b0316815260019091019060200180831161125c575b5050505050815250509050806000015181602001518260400151836060015184608001518560a001518660c00151975097509750975097509750975050919395979092949650565b6112cb81611add565b6112e75760405162461bcd60e51b81526004016105ed90612469565b60008181526009602052604090206003015460ff1661133e5760405162461bcd60e51b8152602060048201526013602482015272151bdad95b881a5cc81b9bdd081b1a5cdd1959606a1b60448201526064016105ed565b6000818152600960205260409020600201543410156113945760405162461bcd60e51b8152602060048201526012602482015271496e73756666696369656e742066756e647360701b60448201526064016105ed565b600061139f82610bbc565b60008381526009602052604090206002015490915033906113c1838386611750565b6000848152600960208181526040808420600180820180546001600160a01b038a81166001600160a01b0319928316811790935560038501805461ffff19166101001790556004850180548086018255908a52878a20018a90558b16808952600a875285892080548086018255908a52878a20018d9055968652600590930180548084018255818952978690209788018054851688179055805492830190559501805490911685179055805193845290830191909152810182905284907f704cf6cb1221490022185412a0f82fd80ca9ccf7b5f84482727d0f6924265bd89060600160405180910390a250505050565b60606114bc82611611565b600082815260066020526040812080546114d5906123a5565b80601f0160208091040260200160405190810160405280929190818152602001828054611501906123a5565b801561154e5780601f106115235761010080835404028352916020019161154e565b820191906000526020600020905b81548152906001019060200180831161153157829003601f168201915b50505050509050600061156c60408051602081019091526000815290565b9050805160000361157e575092915050565b8151156115b05780826040516020016115989291906124d9565b60405160208183030381529060405292505050919050565b6115b984611bfb565b949350505050565b60006001600160e01b031982166380ac58cd60e01b14806115f257506001600160e01b03198216635b5e139f60e01b145b806104ba57506301ffc9a760e01b6001600160e01b03198316146104ba565b61161a81611add565b6116615760405162461bcd60e51b8152602060048201526018602482015277115490cdcc8c4e881a5b9d985b1a59081d1bdad95b88125160421b60448201526064016105ed565b50565b600081815260046020526040902080546001600160a01b0319166001600160a01b038416908117909155819061169982610bbc565b6001600160a01b03167f8c5be1e5ebec7d5bd14f71427d1e84f3dd0314c0f7b2291e5b200ac8c7c3b92560405160405180910390a45050565b6000806116de83610bbc565b9050806001600160a01b0316846001600160a01b0316148061172557506001600160a01b0380821660009081526005602090815260408083209388168352929052205460ff165b806115b95750836001600160a01b031661173e84610552565b6001600160a01b031614949350505050565b826001600160a01b031661176382610bbc565b6001600160a01b0316146117895760405162461bcd60e51b81526004016105ed90612508565b6001600160a01b0382166117eb5760405162461bcd60e51b8152602060048201526024808201527f4552433732313a207472616e7366657220746f20746865207a65726f206164646044820152637265737360e01b60648201526084016105ed565b826001600160a01b03166117fe82610bbc565b6001600160a01b0316146118245760405162461bcd60e51b81526004016105ed90612508565b600081815260046020908152604080832080546001600160a01b03199081169091556001600160a01b0387811680865260038552838620805460001901905590871680865283862080546001019055868652600290945282852080549092168417909155905184937fddf252ad1be2c89b69c2b068fc378daa952ba7f163c4a11628f55a4df523b3ef91a4505050565b6001600160a01b03821661190a5760405162461bcd60e51b815260206004820181905260248201527f4552433732313a206d696e7420746f20746865207a65726f206164647265737360448201526064016105ed565b61191381611add565b156119605760405162461bcd60e51b815260206004820152601c60248201527f4552433732313a20746f6b656e20616c7265616479206d696e7465640000000060448201526064016105ed565b61196981611add565b156119b65760405162461bcd60e51b815260206004820152601c60248201527f4552433732313a20746f6b656e20616c7265616479206d696e7465640000000060448201526064016105ed565b6001600160a01b038216600081815260036020908152604080832080546001019055848352600290915280822080546001600160a01b0319168417905551839291907fddf252ad1be2c89b69c2b068fc378daa952ba7f163c4a11628f55a4df523b3ef908290a45050565b611a2a82611add565b611a8d5760405162461bcd60e51b815260206004820152602e60248201527f45524337323155524953746f726167653a2055524920736574206f66206e6f6e60448201526d32bc34b9ba32b73a103a37b5b2b760911b60648201526084016105ed565b6000828152600660205260409020611aa5828261259b565b506040518281527ff8e1a15aba9398e019f0b49df1a4fde98ee17ae345cb5f6b5e2c27f5033e8ce79060200160405180910390a15050565b6000908152600260205260409020546001600160a01b0316151590565b816001600160a01b0316836001600160a01b031603611b5b5760405162461bcd60e51b815260206004820152601960248201527f4552433732313a20617070726f766520746f2063616c6c65720000000000000060448201526064016105ed565b6001600160a01b03838116600081815260056020908152604080832094871680845294825291829020805460ff191686151590811790915591519182527f17307eab39ab6107e8899845ad3d59bd9653f200f220920489ca2b5937696c31910160405180910390a3505050565b611bd3848484611750565b611bdf84848484611c6f565b6111385760405162461bcd60e51b81526004016105ed9061265b565b6060611c0682611611565b6000611c1d60408051602081019091526000815290565b90506000815111611c3d5760405180602001604052806000815250611c68565b80611c4784611d70565b604051602001611c589291906124d9565b6040516020818303038152906040525b9392505050565b60006001600160a01b0384163b15611d6557604051630a85bd0160e11b81526001600160a01b0385169063150b7a0290611cb39033908990889088906004016126ad565b6020604051808303816000875af1925050508015611cee575060408051601f3d908101601f19168201909252611ceb918101906126ea565b60015b611d4b573d808015611d1c576040519150601f19603f3d011682016040523d82523d6000602084013e611d21565b606091505b508051600003611d435760405162461bcd60e51b81526004016105ed9061265b565b805181602001fd5b6001600160e01b031916630a85bd0160e11b1490506115b9565b506001949350505050565b60606000611d7d83611e03565b600101905060008167ffffffffffffffff811115611d9d57611d9d61210f565b6040519080825280601f01601f191660200182016040528015611dc7576020820181803683370190505b5090508181016020015b600019016f181899199a1a9b1b9c1cb0b131b232b360811b600a86061a8153600a8504945084611dd157509392505050565b60008072184f03e93ff9f4daa797ed6e38ed64bf6a1f0160401b8310611e425772184f03e93ff9f4daa797ed6e38ed64bf6a1f0160401b830492506040015b6d04ee2d6d415b85acef81000000008310611e6e576d04ee2d6d415b85acef8100000000830492506020015b662386f26fc100008310611e8c57662386f26fc10000830492506010015b6305f5e1008310611ea4576305f5e100830492506008015b6127108310611eb857612710830492506004015b60648310611eca576064830492506002015b600a83106104ba5760010192915050565b828054828255906000526020600020908101928215611f16579160200282015b82811115611f16578251825591602001919060010190611efb565b50611f22929150611f7b565b5090565b828054828255906000526020600020908101928215611f16579160200282015b82811115611f1657825182546001600160a01b0319166001600160a01b03909116178255602090920191600190910190611f46565b5b80821115611f225760008155600101611f7c565b6001600160e01b03198116811461166157600080fd5b600060208284031215611fb857600080fd5b8135611c6881611f90565b60005b83811015611fde578181015183820152602001611fc6565b50506000910152565b60008151808452611fff816020860160208601611fc3565b601f01601f19169290920160200192915050565b602081526000611c686020830184611fe7565b60006020828403121561203857600080fd5b5035919050565b80356001600160a01b038116811461205657600080fd5b919050565b6000806040838503121561206e57600080fd5b6120778361203f565b946020939093013593505050565b60008060006060848603121561209a57600080fd5b6120a38461203f565b92506120b16020850161203f565b9150604084013590509250925092565b600081518084526020808501945080840160005b838110156120f1578151875295820195908201906001016120d5565b509495945050505050565b602081526000611c6860208301846120c1565b634e487b7160e01b600052604160045260246000fd5b600067ffffffffffffffff808411156121405761214061210f565b604051601f8501601f19908116603f011681019082821181831017156121685761216861210f565b8160405280935085815286868601111561218157600080fd5b858560208301376000602087830101525050509392505050565b600080604083850312156121ae57600080fd5b823567ffffffffffffffff8111156121c557600080fd5b8301601f810185136121d657600080fd5b6121e585823560208401612125565b95602094909401359450505050565b60006020828403121561220657600080fd5b611c688261203f565b6000806040838503121561222257600080fd5b50508035926020909101359150565b6000806040838503121561224457600080fd5b61224d8361203f565b91506020830135801515811461226257600080fd5b809150509250929050565b6000806000806080858703121561228357600080fd5b61228c8561203f565b935061229a6020860161203f565b925060408501359150606085013567ffffffffffffffff8111156122bd57600080fd5b8501601f810187136122ce57600080fd5b6122dd87823560208401612125565b91505092959194509250565b600060018060a01b03808a1683526020818a16818501528860408501528715156060850152861515608085015260e060a085015261232a60e08501876120c1565b84810360c086015285518082528287019183019060005b8181101561235f578351861683529284019291840191600101612341565b50909d9c50505050505050505050505050565b6000806040838503121561238557600080fd5b61238e8361203f565b915061239c6020840161203f565b90509250929050565b600181811c908216806123b957607f821691505b6020821081036123d957634e487b7160e01b600052602260045260246000fd5b50919050565b6020808252602d908201527f4552433732313a2063616c6c6572206973206e6f7420746f6b656e206f776e6560408201526c1c881bdc88185c1c1c9bdd9959609a1b606082015260800190565b634e487b7160e01b600052603260045260246000fd5b60006001820161246257634e487b7160e01b600052601160045260246000fd5b5060010190565b602080825260149082015273151bdad95b88191bd95cc81b9bdd08195e1a5cdd60621b604082015260600190565b60208082526022908201527f596f7520617265206e6f7420746865206f776e6572206f662074686520746f6b60408201526132b760f11b606082015260800190565b600083516124eb818460208801611fc3565b8351908301906124ff818360208801611fc3565b01949350505050565b60208082526025908201527f4552433732313a207472616e736665722066726f6d20696e636f72726563742060408201526437bbb732b960d91b606082015260800190565b601f82111561068e57600081815260208120601f850160051c810160208610156125745750805b601f850160051c820191505b8181101561259357828155600101612580565b505050505050565b815167ffffffffffffffff8111156125b5576125b561210f565b6125c9816125c384546123a5565b8461254d565b602080601f8311600181146125fe57600084156125e65750858301515b600019600386901b1c1916600185901b178555612593565b600085815260208120601f198616915b8281101561262d5788860151825594840194600190910190840161260e565b508582101561264b5787850151600019600388901b60f8161c191681555b5050505050600190811b01905550565b60208082526032908201527f4552433732313a207472616e7366657220746f206e6f6e20455243373231526560408201527131b2b4bb32b91034b6b83632b6b2b73a32b960711b606082015260800190565b6001600160a01b03858116825284166020820152604081018390526080606082018190526000906126e090830184611fe7565b9695505050505050565b6000602082840312156126fc57600080fd5b8151611c6881611f9056fea26469706673582212203cc00b87f488d68ce32cf85bfffec0322b7a89e7b0793ae4b9a4213042f3fb8e64736f6c63430008130033",
  "linkReferences": {},
  "deployedLinkReferences": {}
}